:020000040800F2
:1000000000200020BD0E0008ED090008EF090008DF
:1000100000000000000000000000000000000000E0
:10002000000000000000000000000000F1090008CE
:100030000000000000000000F3090008F5090008B6
:100040000D0F00080D0F00080D0F00080D0F000820
:100050000D0F00080D0F00080D0F00080D0F000810
:100060000D0F00080D0F00080D0F00080D0F000800
:100070000D0F00080D0F00080D0F00080D0F0008F0
:100080000D0F00080D0F0008000000000D0F000804
:100090000D0F0008490800080D0F00080D0F00089B
:1000A0000D0F00080D0F00080D0F00080D0F0008C0
:1000B0000D0F0008000000000D0F000800000000F8
:1000C00010B5064C2378002B07D1054B002B02D02E
:1000D000044800E000BF0123237010BDB4000020DD
:1000E0000000000014200008044B10B5002B03D0C2
:1000F0000349044800E000BF10BDC04600000000F6
:10010000B80000201420000803B4714649084000DC
:100110004900095E49008E4403BC70470022430831
:100120008B4274D303098B425FD3030A8B4244D3BF
:10013000030B8B4228D3030C8B420DD3FF22090201
:1001400012BA030C8B4202D31212090265D0030BC0
:100150008B4219D300E0090AC30B8B4201D3CB03B6
:10016000C01A5241830B8B4201D38B03C01A5241F8
:10017000430B8B4201D34B03C01A5241030B8B42FA
:1001800001D30B03C01A5241C30A8B4201D3CB02E5
:10019000C01A5241830A8B4201D38B02C01A5241CA
:1001A000430A8B4201D34B02C01A5241030A8B42CD
:1001B00001D30B02C01A5241CDD2C3098B4201D3E5
:1001C000CB01C01A524183098B4201D38B01C01A63
:1001D000524143098B4201D34B01C01A52410309DA
:1001E0008B4201D30B01C01A5241C3088B4201D389
:1001F000CB00C01A524183088B4201D38B00C01A36
:10020000524143088B4201D34B00C01A5241411A5C
:1002100000D20146524110467047FFE701B5002069
:1002200000F0F0F802BDC0460029F7D076E770472D
:1002300003460B437FD4002243088B4274D3030947
:100240008B425FD3030A8B4244D3030B8B4228D3E8
:10025000030C8B420DD3FF22090212BA030C8B420E
:1002600002D31212090265D0030B8B4219D300E0AE
:10027000090AC30B8B4201D3CB03C01A5241830B33
:100280008B4201D38B03C01A5241430B8B4201D3E3
:100290004B03C01A5241030B8B4201D30B03C01A0C
:1002A0005241C30A8B4201D3CB02C01A5241830A86
:1002B0008B4201D38B02C01A5241430A8B4201D3B5
:1002C0004B02C01A5241030A8B4201D30B02C01ADF
:1002D0005241CDD2C3098B4201D3CB01C01A524146
:1002E00083098B4201D38B01C01A524143098B42CF
:1002F00001D34B01C01A524103098B4201D30B01B8
:10030000C01A5241C3088B4201D3CB00C01A5241DC
:1003100083088B4201D38B00C01A524143088B42A1
:1003200001D34B00C01A5241411A00D2014652413A
:10033000104670475DE0CA0F00D04942031000D359
:100340004042534000229C4603098B422DD3030AAE
:100350008B4212D3FC22890112BA030A8B420CD3BE
:10036000890192118B4208D3890192118B4204D3E7
:1003700089013AD0921100E08909C3098B4201D367
:10038000CB01C01A524183098B4201D38B01C01AA1
:10039000524143098B4201D34B01C01A5241030918
:1003A0008B4201D30B01C01A5241C3088B4201D3C7
:1003B000CB00C01A524183088B4201D38B00C01A74
:1003C0005241D9D243088B4201D34B00C01A52414B
:1003D000411A00D20146634652415B10104601D3D8
:1003E0004042002B00D54942704763465B1000D362
:1003F000404201B5002000F005F802BD0029F8D008
:1004000016E770477047C046F0B5CE469946030CD4
:100410009C46130447461B0C1D000E006146040455
:10042000240C80B50700100C4B43654341436043E7
:100430002C0CC01824188C46A34203D980235B02DD
:100440009846C444494679435643230C2D042D0C49
:100450008919634424046019C918C0BCB946B04660
:10046000F0BDC04670B505000C0000F07FFD611BBB
:100470000131FFF7C3FF481970BD000010B588B007
:100480001B4B5A69802189020A435A615A690A4002
:100490000192019A5A698021C9020A435A615B6933
:1004A0000B400293029B03AC14220021200000F0B9
:1004B000ABFE0123049300240BE00E4B6200D35AE1
:1004C00003930D4BA200D05803A900F037FB013471
:1004D000E4B2072CF1D903A90F23039300234B6047
:1004E00001338B609020C00500F028FB08B010BDE0
:1004F000001002401C0000202C00002010B5002439
:100500000AE0074B6200D15A064BA200D0580022E5
:1005100000F0DFFB0134E4B2072CF2D910BDC04675
:100520001C0000202C00002010B5072800D910BDA9
:10053000044B4200D15A044B8000C058012200F005
:10054000C8FBF4E71C0000202C00002010B5072891
:1005500000D910BD044B4200D15A044B8000C05852
:10056000002200F0B6FBF4E71C0000202C00002065
:10057000421E034BDA6200225A62024B1860704737
:10058000004401400000002010B50D4B1870FFF72B
:10059000B5FF0C4A002313700B4A012111700B4A5E
:1005A00013700B4A13700B4A13700B4A137000F050
:1005B0006BFA0A4B186000F067FA094B186010BD1F
:1005C00019000020FC00002018000020E900002095
:1005D000DC000020D0000020E8000020E400002023
:1005E000E000002070B500F04FFA0500002406E09E
:1005F000244B1855244BA200D5500134E4B2032CEF
:100600003FD8224B6200D15A9020C00500F05AFB1F
:100610001C4A125D8242EBD11B4AA1008A58AA1AD9
:10062000012AEAD91A4A125D8242E6D0184A1055C8
:10063000184A125D8242E0D0022C1ED007D8002C4E
:100640000BD0012CD9D10020FFF79EFFD5E7032C5A
:10065000D3D10220FFF798FFCFE70F4A1378594212
:100660004B41DBB21370002B04D0FA204000FFF79F
:100670007FFFC2E7FA208000F9E70120FFF784FF3F
:10068000BBE770BD04000020EC000020100000203B
:10069000080000200C000020EA000020124B1B780C
:1006A000012B09D0114B1B78002B16D10E4B0122C8
:1006B0001A700E4B1A7070470C4B1B78072B05D025
:1006C0000A4A13780133DBB21370F4E7064BFF22BA
:1006D0001A70064BF93A1A70EDE7044A1378013B99
:1006E000DBB21370E7E7C04618000020FC000020D2
:1006F00010B5FFF703FF044B1878C0B2FFF714FFE3
:10070000FFF7CCFF10BDC046FC00002010B5002450
:1007100004E02000FFF708FF0134E4B2072CF8D909
:10072000034B1878C0B2FFF711FFFFF7B7FF10BDFA
:10073000FC00002070B500F0A7F905003A4B1B78CB
:10074000DCB2012B42D0022C4AD0002C68D100F040
:100750000DFCC0B2354B1870354B00221A7001E009
:100760000134E4B2072C0FD8304B1B78E340DB0791
:10077000F6D52000FFF7D8FE2D490A78531CDBB2CE
:100780000B702C4B9C54EBE7294B1C78E4B20DE02A
:1007900000F0ECFB2100FFF731FE013C254A105D23
:1007A000FF231940535C13555054E4B2012CEFD889
:1007B000214B00221A7021496420FFF753FE401993
:1007C0001F4B1860184B01221A7070BD1C4B1B6820
:1007D000C31AFAD41B4B1860134B02221A70F4E7A9
:1007E000154B1B78124A12789A4203D80E4B0022FE
:1007F0001A70EAE7134B1B68C31AE6D40E4C237831
:100800000C4AD05CFFF7A2FE23780133DBB22370E1
:1008100096216420FFF726FE40190A4B1860D4E7A2
:10082000014B00221A70D0E7E9000020E800002008
:10083000D0000020D4000020DC000020DC050000F7
:10084000E4000020E0000020044B1B68022252421A
:100850001A61034B03321A707047C0460001002032
:10086000FD00002072B6FEE710B50C480C4B03608B
:100870000C4B4360002383600B4AC26003614361F9
:100880008033836100F0BAFA002804D1074B80223C
:1008900092031A6010BDFFF7E5FFC046000100207B
:1008A000004401403F1F0000E703000000E100E0BA
:1008B00010B51A4A136801218B431360174B1B684C
:1008C000DB07FBD4164A136801210B431360144B5A
:1008D0001B689B07FBD5124B1A68F8218A437839AD
:1008E0000A431A605A6870318A435A605A680D493F
:1008F0000A405A605A6803218A435A60084B5B6871
:100900000C221A42FAD1084800F0D2FA032000F073
:1009100077F8002800D110BDFFF7A4FF00200240A7
:1009200000100240FFF8FFFF00127A0010B500F03F
:100930008FF8FFF7BDFFFFF7A1FDFFF795FF00F070
:10094000A3F800F0E5FAFFF7D9FD002413E01F4BF0
:100950006200D15A9020C00500F0B4F91C4B185524
:100960001C4B18551C4B185500F08EF81B4BA20061
:1009700098500134E4B2032CE9D9FA208000FFF743
:10098000F7FD174800F0ACF905E0FFF7BFFE154B87
:100990001B78022B17D0FFF725FE134B1B78002B7B
:1009A000F5D0114B00221A700E4B1B78DAB2012BD6
:1009B000EBD0022AEBD0002A02D1FFF799FEE6E73E
:1009C000FFF79CFDE3E7FFF7B5FEE4E7100000202A
:1009D0000C0000200800002004000020EC00002093
:1009E0000001002019000020FD000020FEE7FEE7C6
:1009F0007047704710B500F03BF810BD704700001D
:100A000070B504000F4B1D680F4B1978FA20800059
:100A1000FFF784FB01002800FFF780FB00F08AF855
:100A200000280DD1032C01D901200AE00130002259
:100A30002100404200F07AF8044B1C60002000E0E6
:100A4000012070BD4C000020500000205400002008
:100A500010B5064A136810210B4313600320FFF7FB
:100A6000CFFF00F0F7F9002010BDC0460020024083
:100A7000034A1168034B1B785B1813607047C0462C
:100A80004801002050000020014B18687047C04604
:100A90004801002070B5002811DB8308134DC033D6
:100AA0009B005C5903221040C000FC3216008640B7
:100AB000B44389010A40824022435A5170BD0F233A
:100AC0000340083B9B0806339B00094A9446634455
:100AD0005C6803221040C000FC3215008540AC4326
:100AE00089010A40824022435A60E7E700E100E0C2
:100AF00000ED00E0013880235B0498420FD2094AE0
:100B000050600948036A1B021B0AC02109060B43F7
:100B100003620023936007331360002070470120B5
:100B2000FCE7C04610E000E000ED00E010B5FFF784
:100B3000B1FF10BD10B5FFF7DDFF10BDF0B583B0FC
:100B4000002356E086685F000324BC40A643CC68BF
:100B5000BC4034438460446894434E6836090122A3
:100B600032409A402243426053E0DE080836B60025
:100B7000375805321A4092000F249440A7430C695D
:100B8000944022003A43325056E0032600E000260B
:100B9000A64034003C4302329200444E9451444AF1
:100BA0009768EA433E00AE434C68E40201D53E003C
:100BB0002E433F4CA660E7683E0016404C68A402F6
:100BC00001D53E002E433A4CE66067683E00164071
:100BD0004C68A40301D53E002E43354C6660266860
:100BE00032404C68E40301D52A003243304C226085
:100BF00001330C682200DA4056D001229A402500C9
:100C000015401442F4D04E6803243440013C012CBA
:100C100098D94C6803222240032A08D0C4685E0099
:100C20000322B24094438A68B2402243C2604C68B7
:100C300003222240022A98D004685E000322170093
:100C4000B740BC434F683A40B240224302604C6810
:100C5000C02292021442CBD0164CA6690122164340
:100C6000A661A46922400192019A9A08941CA400EA
:100C70000E4EA75903241C40A4000F26A640B743DC
:100C80009026F605B04282D00B4EB04208D00B4EF3
:100C9000B04207D00A4EB04200D176E7052677E78A
:100CA000012675E7022673E703B0F0BD000001409E
:100CB0000004014000100240000400480008004801
:100CC000000C004803690B4201D00120704700204E
:100CD000FCE7002A01D0816170478162FCE70000D7
:100CE0003D23C35C012B26D13C330222C25402684F
:100CF000D36801210B43D3600368114A93420FD09C
:100D00008022D20593420BD00E4A934208D00E4A5D
:100D1000934205D01A6801210A431A6000200BE0B3
:100D2000996807220A40062A07D01A6801210A4357
:100D30001A60002000E0012070470020FCE7C04658
:100D4000002C014000040040004001400368244A98
:100D5000904206D08022D205904202D0214A904291
:100D600003D1702293434A6813431D4A904212D024
:100D70008022D20590420ED01A4A90420BD01A4AD5
:100D8000904208D0194A904205D0194A904202D0A8
:100D9000184A904203D1184A1A40CB681343802264
:100DA00093434A69134303608B68C3620B68836291
:100DB0000B4B984208D00D4B984205D00C4B9842F3
:100DC00002D00C4B984201D10B69036301234361AC
:100DD0000269134203D00369012293430361704700
:100DE000002C014000040040002000400040014071
:100DF0000044014000480140FFFCFFFF70B5041EA5
:100E000026D03D23C35C002B1CD03D250223635517
:100E1000210001C9FFF79AFF01234622A354083A93
:100E2000A3540132A3540132A3540132A35401321A
:100E3000A3540132A3540132A3540132A354635585
:100E4000002070BD3C330022C25400F01BF8DCE7E8
:100E50000120F6E782B00A4B99690122114399619A
:100E600099690A400092009ADA69802149050A438B
:100E7000DA61DB690B400193019B02B07047C04609
:100E80000010024082B00268074B9A4201D002B0C3
:100E90007047064B9A69802189020A439A619B69CF
:100EA0000B400193019BF2E7004401400010024017
:100EB000014B18607047C0464C0000200D48854625
:100EC000FFF79CFD0C480D490D4A002302E0D45861
:100ED000C4500433C4188C42F9D30A4A0A4C002384
:100EE00001E013600432A242FBD300F0E3F9FFF704
:100EF0001DFDFEE70020002000000020B4000020BF
:100F000014210008B40000209C020020FEE700002D
:100F1000104B70B51D6804002A6B002A16D11820EA
:100F200000F058FA021E286304D146210A4B0B48F0
:100F300000F0E8F90A4B002103600A4B43600A4BBA
:100F400083600B23838101201061516100231461B0
:100F5000536170BD640000202C200008432000086D
:100F60000E33CDAB34126DE6ECDE0500164B70B5DA
:100F70001D682C6B002C17D1182000F02BFA041ED2
:100F8000286305D122005221104B114800F0BAF914
:100F9000104B01220360104B4360104B83600B2306
:100FA0008381002302614361206961690C4A0D4B12
:100FB000FFF72AFA0122002380185941206161615C
:100FC0004800400870BDC046640000202C20000886
:100FD000432000080E33CDAB34126DE6ECDE050085
:100FE0002D7F954C2DF45158002310B5040003605B
:100FF0004360836081814366C28103614361836191
:10100000190008225C3000F0FFF80B4B2462636289
:101010000A4BA3620A4BE3620A4B23630A4B9C42CE
:1010200005D00A4B9C4202D0094B9C4203D12000C0
:10103000583000F063F910BD7111000899110008D3
:10104000D1110008FD1100084C010020B40100205E
:101050001C02002010B5034A0349044800F06CF854
:1010600010BDC0465800002061160008680000202E
:1010700041680B4B10B50400994201D000F0F0FA22
:10108000A168084B994202D0200000F0E9FAE1681B
:10109000054B994202D0200000F0E2FA10BDC04694
:1010A0004C010020B40100201C02002010B5094BA7
:1010B000094A04211A6009480022FFF795FF01221E
:1010C00009210748FFF790FF022212210548FFF788
:1010D0008BFF10BD84020020551000084C01002039
:1010E000B40100201C02002010B5024800F007F9EE
:1010F00010BDC0468D02002010B5024800F000F976
:1011000010BDC0468D02002010B50400FFF7ECFFB3
:10111000236A002B02D0FFF7EFFF10BD044B2362C0
:10112000044B1B68002BF6D1FFF7C0FFF3E7C04666
:101130007110000884020020F7B51400002600900A
:101140000191A5686768013F04D52468002CF8D197
:101150003000FEBDAB89012B08D90E22AB5E0133F6
:1011600004D029000098019B984706436835EAE7B8
:1011700070B50C000E25495F00F074F8002803DB01
:10118000636D1B18636570BDA389024A1340A38178
:10119000F9E7C046FFEFFFFFF8B51F008B89050098
:1011A0000C001600DB0505D50E23C95E00220223C4
:1011B00000F044F8A389054A28001340A3813200B7
:1011C0000E23E15E3B0000F061F8F8BDFFEFFFFF8A
:1011D00070B50C000E25495F00F030F80C22A35EBC
:1011E000421C03D1044A1340A38170BD80225201E6
:1011F0001343A3816065F8E7FFEFFFFF10B50E23EF
:10120000C95E00F009F810BD03008218934200D1B6
:10121000704719700133F9E7002370B5064D0400DB
:1012200008002B6000F0A6FE431C03D12B68002BA6
:1012300000D0236070BDC0468802002070B5040055
:10124000080011001A000023054D2B6000F0BAFEC3
:10125000431C03D12B68002B00D0236070BDC04617
:101260008802002070B50400080011001A00002355
:10127000054D2B6000F0AEFE431C03D12B68002B04
:1012800000D0236070BDC0468802002070B5040005
:10129000080011001A000023054D2B6000F0B0FE7D
:1012A000431C03D12B68002B00D0236070BDC046C7
:1012B0008802002070B500260C4C0D4D641BA41054
:1012C000A64209D1002600F0A5FE0A4C0A4D641B77
:1012D000A410A64205D170BDB300EB589847013663
:1012E000EEE7B300EB5898470136F2E70C2100080F
:1012F0000C210008102100080C21000870477047DD
:10130000704700007FB514001A00094B05001B68E8
:101310000E00D868074B002C01D1074B1C00074971
:10132000019302942B00009600F0C6F900F0E6F954
:10133000640000209B200008D6200008A820000898
:1013400070B505000C1E10D0043C2368002B00DA99
:10135000E418280000F0EAF81D4A1368002B05D1B4
:1013600063601460280000F0E9F870BDA34208D95A
:10137000206821188B42F3D119685B680918216035
:10138000EEE71A005B68002B01D0A342F9D911687F
:101390005018A0420BD120680918501811608342E0
:1013A000E0D118685B68411811605360DAE7A04229
:1013B00002D90C232B60D5E7206821188B4203D17A
:1013C00019685B680918216063605460CAE7C04609
:1013D0009402002010B5034B0100186800F026F8B5
:1013E00010BDC0466400002070B50F4E0D0031687E
:1013F0000400002902D100F06FF9306029002000BC
:1014000000F06AF9431C03D101256D42280070BD2C
:101410000323C51C9D43A842F8D0291A200000F0E0
:101420005BF90130F2D1EFE790020020F7B503221B
:10143000CB1C9343083305001F000C2B34D20C2720
:10144000B94233D8280000F071F8374E33681C00D9
:10145000002C2FD139002800FFF7C6FF0400431CE1
:101460005FD134680094009B002B4AD1002C52D0ED
:1014700023682800E3180099019300F02DF9019BDF
:10148000834248D123682800FF1A3900FFF7ACFFD8
:10149000013040D02368DB19236033685A68002A82
:1014A00033D1009B336019E0002BC9DA0C232B6089
:1014B0000020FEBD2168C91B20D40B290AD9E219DE
:1014C0002760A34204D1326063681160536005E075
:1014D0005A60F9E76268A3420ED13260280000F03A
:1014E0002DF8200007220B30231D9043C21A98428A
:1014F000DFD01B1AA350DCE75A60EFE723006468D3
:10150000A6E7009C63680093ADE71A005B68A342FE
:10151000FBD10023DAE70C2328002B6000F00EF843
:10152000C6E70760DAE7C0469402002010B502481B
:10153000FFF7E5FE10BDC0468C02002010B5024842
:10154000FFF7DEFE10BDC0468C020020F7B50C226E
:101550008B5E05000C001A075AD44A68002A02DC88
:101560000A6C002A4FDDE76A002F4CD00022802150
:101570002E682A601A0049010A400B4234D0626D7D
:10158000A3895B0706D56368D21A636B002B01D071
:10159000236CD21A00232800E76A216AB8470C237B
:1015A000E25E431C06D129681D292ED82B4BCB4067
:1015B000DB072AD50023636023692360D20405D5A5
:1015C000431C02D12B68002B00D16065616B2E603B
:1015D000002918D023004433994202D02800FFF795
:1015E000AFFE002363630EE001232800216AB847A1
:1015F0000200431CC4D12B68002BC1D01D2B01D08D
:10160000162B1DD12E60002021E0402313431BE048
:101610000E69002EF7D00F680E60BA1B01920022EF
:101620009B0700D14A69A260019B002BEBDDA36AF6
:1016300032001F002800019B216AB847002807DC00
:101640004023A28913431BB20120A3814042FEBD67
:10165000019B36181B1A0193E6E7C04601004020A3
:101660000B6970B505000C00002B02D10025280085
:1016700070BD002804D0036A002B01D1FFF744FDA0
:101680000C22A35E002BF1D0626ED20704D49B051E
:1016900002D4A06DFFF733FE28002100FFF756FFAC
:1016A000636E0500DB07E2D4A3899B05DFD4A06D40
:1016B000FFF726FEDBE700000EB417B5054C05ABBF
:1016C00004CB01002068019300F046F81EBC08BC62
:1016D00003B0184764000020002370B5064D0400D5
:1016E00008002B6000F07EFC431C03D12B68002B0C
:1016F00000D0236070BDC04688020020062010B5CF
:1017000000F084FB012000F083FC936810B5013BDE
:101710009360002B04DA9469A34207DB0A2905D001
:101720001368581C10601970080010BD00F0A8FA6A
:101730000100F9E7F8B506000F001400D518AC4217
:1017400001D1002007E021783A003000FFF7DDFFEB
:101750000134431CF3D1F8BDF0B59FB00D00170064
:101760001E000290002804D0036A002B01D1FFF76D
:10177000CBFC6B6EDB0705D4AB899B0502D4A86D4F
:10178000FFF7BDFDAB891B0702D52B69002B13D1D9
:101790002900029800F0B6FA00280DD06B6EDB0726
:1017A00003D5012040421FB0F0BDAB899B05F8D4A2
:1017B000A86DFFF7A5FDF4E7002306AC63612033B5
:1017C00063761033A37605963E003378002B01D064
:1017D000252B48D1F31B0393BE420BD03A002900BE
:1017E0000298FFF7A7FF013000D1AAE06369039ACE
:1017F0009B1863613378002B00D1A2E001225321B2
:1018000000235242626002AA5218771C2360E360F0
:10181000A3601370A365574B052218003978039312
:1018200000F014FB7E1C226800281ED1D30604D5CC
:10183000202302A9533009180B70130704D5532035
:101840002B2302A909180B703B782A2B15D03E00D8
:1018500000210A20E3683278771C303A092A4ED9F1
:10186000002910D116E00136AFE7039B3700C01AFC
:101870000123834013432360CDE7059B191D1B689B
:101880000591002B01DBE36004E05B42E36002238F
:101890001343236033782E2B0CD173782A2B33D14A
:1018A000059B02361A1D1B680592002B01DA0123E5
:1018B0005B426360304F03223800317800F0C6FA93
:1018C000002806D04023C01B834022680136134302
:1018D0002360317806222948771C217600F0B6FA79
:1018E00000283DD02648002821D10722059B073338
:1018F00093430833059363691B18636164E74343AB
:101900003E0001219B18A6E700230A20190001369A
:1019100063603278771C303A092A03D9002BC9D08A
:101920006160C7E741433E0001238918F1E705AA3A
:10193000009221002A00134B029800E000BF431CD4
:10194000D9D16B6EDB0705D4AB899B0502D4A86D9A
:10195000FFF7D6FCAB895B0600D522E7606922E77A
:1019600005AA009221002A00064B029800F07CF89C
:10197000E5E7C046D7200008DD200008E120000888
:101980000000000035170008F7B5160001938A68BB
:101990000B690C000090934200DA130022003360C0
:1019A00043321278002A01D00133336023689B064A
:1019B00002D53368023333602268062315001D40C8
:1019C0001A4227D0230043331B785A1E93412268C2
:1019D000920630D4220001990098089D4332A8470E
:1019E000013025D00622236800251340042B05D1A1
:1019F0003368E568ED1AEB43DB171D40A3682269E5
:101A0000934201DD9B1AED180026B54220D100203B
:101A100010E00135E36832689B1AAB42D2DD220048
:101A2000012301990098089F1932B8470130F0D17D
:101A300001204042FEBD3020E118433108702100F2
:101A40005A1C45310978A218433202331170C1E79C
:101A50002200012301990098089F1A32B8470130EB
:101A6000E6D00136D1E70000F0B58BB006920A004F
:101A700043320793059003920A7E0C00109B782A4C
:101A800009D8622A0BD8002A00D1BBE07A49049118
:101A9000582A00D18FE0250042352A7022E010003C
:101AA00063381528F7D8FEF72FFB16001F00F6FF46
:101AB000F6FFF6FFF6FF1F00F6FFF6FFF6FFF6FF54
:101AC000A00036007F00F6FFF6FFB100F6FF3600FB
:101AD000F6FFF6FF830025001A684235111D1960D4
:101AE00013682B7001239FE018680968021D0D061A
:101AF0000BD506681A60002E03DA2D23039A76426E
:101B000013705D4B0A27049319E006681A604906B2
:101B1000F1D536B2EFE71A68096840CA080602D460
:101B2000490600D5B6B21A60237E534A0A270492AA
:101B30006F2B00D1023F2300002243331A706368E9
:101B4000A360002B06DB04212268039D8A432260E8
:101B500033430CD0039D30003900FEF765FB049B36
:101B6000013D5B5C2B70330006009F42F3D9082FC8
:101B700009D12368DB0706D5626823699A4202DC33
:101B80003023013D2B70039B5B1B2361079B2100CE
:101B900000930598069B09AAFFF7F6FE013048D18D
:101BA000012040420BB0F0BD202209680A432260A8
:101BB000782232490491210045310A70196822685F
:101BC00040C9100602D4500600D5B6B21960D3073A
:101BD00002D5202313432360002E01D01027AAE74B
:101BE0002022236893432360F8E71A680D68101DCC
:101BF0004969186013682E0601D5196002E06D0668
:101C0000FBD519800023039D2361BFE71A68111DCE
:101C10001960156800212800626800F017F9002893
:101C200001D0401B6060636823610023039A137036
:101C3000ACE72A00236906990598079DA84701305B
:101C4000AED023689B0715D4099BE0689842A9DAB7
:101C50001800A7E72200012306990598079E19326C
:101C6000B04701309CD00135E368099A9B1AAB421A
:101C7000F0DCE9E70025F7E7E8200008F920000894
:101C8000F8B506000D001400002804D0036A002BEC
:101C900001D1FFF739FAA369A360A3891B0702D515
:101CA0002369002B09D12100300000F02BF8002817
:101CB00003D001256D422800F8BD23692068EFB2EA
:101CC000C01A6369EDB2834205DC21003000FFF7E2
:101CD000C7FC0028EDD1A3680130013BA360236855
:101CE0005A1C22601F706369834204D0A389DB07FA
:101CF000E1D50A2DDFD121003000FFF7B1FC00282B
:101D0000D9D0D6E72B4B70B5050018680C00002819
:101D100004D0036A002B01D1FFF7F6F90C22A35E71
:101D20001A0722D4DA0607D409222A6037320120A2
:101D30001343A381404270BD5A0713D5616B00293C
:101D400008D023004433994202D02800FFF7F8FA64
:101D5000002363632422A3899343002262602269E3
:101D60001BB2226008221343A3812269002A07D1F3
:101D70009A0501D51B0603D52100280000F09CF828
:101D80000C23E25E012113000B400A420CD0002319
:101D9000A36063695B42A361002023698342CAD1C7
:101DA0001306C8D54023C2E7910700D46369A36036
:101DB000F2E7C0466400002070B504000D001F2942
:101DC00004D9162303600120404270BDC36B002B71
:101DD00004D08A009B181A68002A08D1200000F05D
:101DE00031F82A000100200000F01AF8EDE7012A7E
:101DF00009D0511C03D1162303600120E5E700211F
:101E00002800196090470020DFE7000010B5034B61
:101E100001001868FFF7D0FF10BDC0466400002025
:101E2000002370B5064D0400080011002B6000F07F
:101E3000C1F8431C03D12B68002B00D0236070BD78
:101E40008802002010B500F0A5F810BDC9B28218B4
:101E5000904201D10020704703788B42FBD00130C3
:101E6000F6E70000F0B50E001D000E23C95E140059
:101E700097B000290CDAB2898023110019401A4268
:101E800014D18023DB0000202960236017B0F0BD4F
:101E90006A4600F04BF80028EDDBF02301991B02A5
:101EA0001940044BC9184B425941EAE7002140232D
:101EB000E9E7C04600E0FFFFF7B502268B89050081
:101EC0000C00334206D023004733236023610123F3
:101ED0006361F7BD6A4601ABFFF7C4FF009F2800AE
:101EE0003900FFF7A3FA0C22A35E002806D19A0559
:101EF000EFD4032293431E43A681E4E780221343D9
:101F0000A381019B206020616761002BE1D0280044
:101F10000E23E15E00F01CF80028DAD00323A2892A
:101F20009A43023B1343A381D3E70000002370B51B
:101F3000064D0400080011002B6000F023F8431C3C
:101F400003D12B68002B00D0236070BD88020020D5
:101F5000002370B5064D040008002B6000F022F845
:101F6000431C03D12B68002B00D0236070BDC046FA
:101F70008802002058220120014B40421A6070471D
:101F80008802002058220120014B40421A6070470D
:101F90008802002058220120014B40421A607047FD
:101FA000880200205822024B00201A607047C04669
:101FB0008802002058220120014B40421A607047DD
:101FC0008802002058220120014B40421A607047CD
:101FD0008802002058220120014B40421A607047BD
:101FE00088020020044A03001068002802D0C318A9
:101FF000136070470148FAE798020020A002002011
:1020000058220120014B40421A607047880200208C
:10201000FEE7C046F8B5C046F8BC08BC9E4670470F
:0C202000F8B5C046F8BC08BC9E467047EE
:10202C005245454E54206D616C6C6F632073756323
:10203C00636565646564002F6275696C642F676EF7
:10204C00752D746F6F6C732D666F722D73746D3389
:10205C00325F31342E332E72656C312E3230323584
:10206C00313032372D303730302F7372632F6E652D
:10207C00776C69622F6E65776C69622F6C6962632D
:10208C002F7374646C69622F72616E642E63002C02
:10209C002066756E6374696F6E3A200061737365A8
:1020AC007274696F6E2022257322206661696C65DB
:1020BC00643A2066696C6520222573222C206C6999
:1020CC006E65202564257325730A00232D302B2083
:1020DC0000686C4C0065666745464700303132330A
:1020EC003435363738394142434445460030313275
:1020FC003334353637383961626364656600000005
:04210C00E9000008DE
:04211000C100000802
:10211400E8030000010101010101010101010101C4
:102124000100020004000800010300000100020095
:102134000400080010002000400080000004004853
:10214400000400480004004800040048000400485B
:1021540000040048000400480004004800127A000B
:102164000100000004000000000000000300000063
:102174004C01002068000020000000004C010020F9
:10218400B40100201C020020000000000000000038
:10219400000000000000000000000000000000003B
:1021A400000000000000000000000000000000002B
:1021B400000000000000000000000000000000001B
:0421C4000000000017
:0400000508000EBD24
:00000001FF
