:020000040800F2
:10000000002000202D020008010200080302000861
:1000100000000000000000000000000000000000E0
:1000200000000000000000000000000005020008C1
:10003000000000000000000007020008090200089C
:100040007D0200087D0200087D0200087D02000894
:100050007D0200087D0200087D0200087D02000884
:100060007D0200087D0200087D0200087D02000874
:100070007D0200087D0200087D0200087D02000864
:100080007D0200087D020008000000007D020008DB
:100090007D020008B50100087D0200087D0200080D
:1000A0007D0200087D0200087D0200087D02000834
:1000B0007D020008000000007D0200080000000032
:1000C00010B5064C2378002B07D1054B002B02D02E
:1000D000044800E000BF0123237010BD040000208D
:1000E00000000000C8020008044B10B5002B03D02C
:1000F0000349044800E000BF10BDC04600000000F6
:1001000008000020C80200080E4A51698023DB0263
:100110000B4353610C4B1A680C490A401A6019686A
:10012000802252000A431A605A6810218A435A609A
:100130009968C02292000A439A60802252039A6111
:100140007047C0460010024000040048FFFCFFFF5B
:1001500030B5114A916980239B020B4393610F4B89
:1001600007229A625C32DA621A6901218A431A61B3
:10017000DA680A43DA600A4AC525AD0054590948CD
:1001800004408020C0012043505180208003106033
:100190001A680A431A6030BD001002400044014052
:1001A00000E100E0FF00FFFF10B5FFF7ADFFFFF734
:1001B000CFFFFEE70F4B1B69DB0714D50D4A136910
:1001C00001218B4313610C4B1B781D2B0CD80B4A60
:1001D0000F3191610133DBB2074A1370632B02D9EF
:1001E000130000221A707047044A8021490391616C
:1001F000F0E7C04600440140200000200004004811
:10020000FEE7FEE77047704710B500F003F810BD39
:1002100070470000034A1168034B1B785B1813609A
:100220007047C04624000020000000200D4885468D
:10023000FFF7EEFF0C480D490D4A002302E0D458A9
:10024000C4500433C4188C42F9D30A4A0A4C002320
:1002500001E013600432A242FBD300F011F8FFF773
:10026000A3FFFEE700200020000000200400002083
:10027000E80200080400002028000020FEE700003B
:1002800070B500260C4C0D4D641BA410A64209D17C
:10029000002600F019F80A4C0A4D641BA410A6426F
:1002A00005D170BDB300EB5898470136EEE7B300B7
:1002B000EB5898470136F2E7E0020008E002000838
:1002C000E4020008E0020008F8B5C046F8BC08BC2B
:1002D0009E467047F8B5C046F8BC08BC9E467047BD
:0402E000E900000829
:0402E400C10000084D
:0402E8000100000011
:040000050800022DC0
:00000001FF
